:020000040001F9
:10C00000000001205D280200952802009728020008
:10C01000992802009B2802009D28020000000000D1
:10C02000000000000000000000000000811102007C
:10C03000000000000000000027120200871202002A
:10C04000A5280200A5280200A5280200A5280200B4
:10C05000A5280200A5280200A5280200A5280200A4
:10C06000A5280200A5280200A5280200A528020094
:10C07000A5280200A5280200A5280200A528020084
:10C08000A5280200A5280200A5280200A528020074
:10C09000A5280200A5280200A5280200A528020064
:10C0A000A5280200A5280200A5280200A528020054
:10C0B000A5280200A52802000000000000000000E2
:10C0C000A5280200A5280200A5280200A528020034
:10C0D000A5280200A5280200A528020010B5054CDD
:10C0E000237833B9044B13B10448AFF30080012324
:10C0F000237010BD3039002000000000A0040300B0
:10C10000084B10B51BB108480849AFF30080084838
:10C11000036803B910BD074B002BFBD0BDE81040EE
:10C12000184700BF00000000A004030034390020BD
:10C130005838002000000000154B002B08BF134B9F
:10C140009D46A3F5803A00218B460F461348144ABA
:10C15000121A0EF0E5FA0F4B002B00D098470E4B49
:10C16000002B00D098470020002104000D000D484E
:10C17000002802D00C4804F073FE0DF01DFE2000D4
:10C18000290004F039FE04F068FE00BF000008003A
:10C190000000012000000000EB0D020030390020FB
:10C1A00078580020610E02000000000038B590F9B8
:10C1B0000030013304460D4604D1094809492022C4
:10C1C00004F090FC94F9001001234FF0A0428B4042
:10C1D00015B1C2F8083538BDC2F80C3538BD00BFFE
:10C1E0006CF9020084F90200704710B50021044682
:10C1F000FFF7DCFF142004F026FD20460121FFF7A5
:10C20000D5FF1420BDE8104004F01DBD70B50646F2
:10C210000D46082415F0800F14BF01210021701C69
:10C22000FFF7C4FF013C3046FFF7DFFF6D0014F05D
:10C23000FF04EDB2EED170BD13F0800FF8B50D46DE
:10C24000164614BFC021E0215A061F4658BF41F0D0
:10C2500010013306044658BF41F00801700658BF6C
:10C2600041F004012A0658BF41F002016B0658BF95
:10C2700041F001012046FFF7C9FF20463946FFF78C
:10C28000C5FF20463146FFF7C1FF20462946BDE8DD
:10C29000F840FFF7BBBF2DE9F8430446894600216B
:10C2A00016461F469DF82080FFF7B0FF204600216C
:10C2B000FFF7ACFF20460021FFF7A8FF2046002132
:10C2C000FFF7A4FF00256268EBB2934214D24B45FE
:10C2D00004BF09EB4902121903EB4303234402BFD5
:10C2E0001672577282F80A80197A5A7A9B7A204617
:10C2F000FFF7A2FF0135E6E720460021FFF786FFA2
:10C3000020460021FFF782FF20460021FFF77EFF35
:10C3100020460021BDE8F843FFF778BFF7B50024B9
:10C320000546047017461E4604F051FB2846394660
:10C3300000F8014F04F04BFB6E606B68E1B299426C
:10C3400004F1010406D20022009228461346FFF7AA
:10C35000A2FFF2E7284603B0F0BDC36810B504465B
:10C360000BB19B689847204610BD7047036818477B
:10C3700008B10B68036070477047C36810B5044686
:10C380000BB19B689847204610BD000010B5084BC4
:10C39000044640F8083B06F055FD04F11C00FFF789
:10C3A000ECFF04F10C00FFF7E8FF204610BD00BFD2
:10C3B000D8F9020010B50446FFF7E8FF204604F064
:10C3C000ABFD204610BD000038B504460D46FFF712
:10C3D000D4FF2CB10DB9E56038BD024B2560E36098
:10C3E00038BD00BFC0F9020070B5104B104E03609D
:10C3F0000023044603718360836183620D460C3021
:10C400003146FFF7E1FF04F11C003146FFF7DCFF86
:10C410002946084A234604F1080006F0DFFC201DE7
:10C42000294604F0BAFA204670BD00BFD8F90200D0
:10C430006BC30100B5C401002DE9F0410D4606466D
:10C4400006F09AFDEF6806F11C0406F10808204684
:10C4500077B1FFF792FF3CB1EB681BB15B682046F8
:10C4600029469847EB68B36240460221012205E065
:10C470000549FFF7A9FF404602213A4606F020FD94
:10C48000BDE8F04106F0BCBD6BC30100C36810B548
:10C4900004462BB90548064940F2E71204F022FB96
:10C4A000E36820461B68BDE810401847E0F9020029
:10C4B000E5F90200012908B502D0022902D008BD21
:10C4C0000C3000E01C30FFF7E1FF08BD4368416914
:10C4D00070B50446194400F0E9F8636A04F11805E0
:10C4E0002BB90648064940F2E71204F0FBFA636AEA
:10C4F00028461B68BDE87040184700BFE0F90200FD
:10C50000E5F9020038B505460C4606F035FD28462B
:10C5100000F0D2F86C61286904F0CFFA01192846BE
:10C5200000F0C4F8BDE8384006F06ABD38B50446EE
:10C5300004F1180506F020FD204600F0BDF828465D
:10C54000FFF71BFF0DB100236362BDE8384006F022
:10C5500057BD000038B50546064B45F8183B044664
:10C56000FFF7E4FF2846FFF708FF204600F0AAF88F
:10C57000204638BD10FA020010B50446FFF7EAFF66
:10C58000204604F0C9FC204610BD0000436A70B587
:10C59000044600F118052BB90548064940F2E71298
:10C5A00004F0A0FA636A28461B68BDE8704018478B
:10C5B000E0F90200E5F9020010B5034B0360044600
:10C5C000FFF7C8FF204610BD28FA020010B5044648
:10C5D000FFF7F2FF204604F09FFC204610BD10B587
:10C5E000044606F0C9FC23682BB9E06804F065FA3C
:10C5F000012360602360BDE8104006F001BD38B53E
:10C60000054606F0B9FC2C6824B1E86804F055FA38
:10C610006C68041B06F0F4FC204638BD38B50546AE
:10C6200006F0AAFC2846AC68FFF7E9FF044406F0D0
:10C63000E7FC204638BD08B5FFF7F0FF4FF47A73EA
:10C6400090FBF3F008BD10B5044606F095FCE068D9
:10C6500004F033FA00236060A360BDE8104006F0E8
:10C66000CFBC002310B5036043608360044604F030
:10C6700027FAE0602046FFF7E6FF204610BD03687A
:10C680009B681847074B10B5036000234360836025
:10C69000C360044604F014FA0349206104F0A0F9D1
:10C6A000204610BD40FA02007FC6010003460A463C
:10C6B0000069191D04F0C1B901460431006904F094
:10C6C000DDB9000010B5034B03600446FFF7F4FF2B
:10C6D000204610BD40FA0200002310B504468366D0
:10C6E00012B900F093F801E000F063F8204610BDA5
:10C6F00000F050B910B5044600F09AF804F15C005F
:10C70000FFF72BFE204610BD2DE9F04106691746C4
:10C710008B1B42690E7996401E434B69DB1B002B35
:10C72000ACBFFB183B1C4B61037B4B71054600F112
:10C73000540840460C4600F0FEF92B68284663B1C9
:10C7400059696269C2EB010EBEF1000F03DA03F111
:10C7500008009B68F3E7914219D0A36013B104F17C
:10C7600008021A610023E3600460EB6A2061D3B120
:10C7700095F82820BAB12A68A24214D1E26892B989
:10C780006169286BC91B21EAE17198470BE09B683E
:10C79000A36013B104F108021A612346026843F84A
:10C7A0000C2F1361E0E7404600F0C7F93046BDE8C2
:10C7B000F08138B5002304460261836143610D4670
:10C7C00025B16369013363616D08F9E72162626233
:10C7D000E561256000F0C8F925736060A56084F804
:10C7E0002850E562256304F1340000F0A8F9002820
:10C7F0000BDB04F1540000F09BF9002805DB04F189
:10C80000580000F095F900EAE07038BD70B50546B3
:10C8100008460E460DF068FB044630B12846314606
:10C820002246FFF7C6FFAC6170BD4FF0FF3070BD10
:10C8300070B50668044656B1256835B1EB6913B189
:10C8400005F124009847ED68F7E7B668F3E7E36A77
:10C850001BB1206B4FF0FF31984704F1580000F0F6
:10C8600069F904F1540000F065F904F1340000F0B6
:10C870006DF9A069BDE870400DF03EBB2DE9F041B7
:10C88000074600F158082731404621F0030600F022
:10C8900052F9FC6907F11C0394B12268B2420BD330
:10C8A000E2681AB11A60A368936001E0A2681A6096
:10C8B000404600F042F918E004F10803A468EBE7F1
:10C8C0003B6AB3420DD37D6A9B1B3B62AA190123CD
:10C8D0007A6240462E602B7100F02FF97DB12C4614
:10C8E00003E0404600F029F909E000234FF0FF3251
:10C8F0006361A261E36104F12400BDE8F081204698
:10C90000BDE8F081F8B551F8083C05460C46A1F1A8
:10C9100024070BB10846984705F15806304600F049
:10C920000AF9EB6905F11C0243B1186854F8241C9C
:10C9300088420FD203F108029B68F5E7002344F810
:10C94000183C136844F81C3C30461760BDE8F840BA
:10C9500000F0F3B8F2D144F8183C13689B68F1E793
:10C9600070B5144605460E4600F0FEF854F8103C2B
:10C9700044F8046C0344024644F8103CA4F124013A
:10C980002846FFF7C1FE044605F1340000F0E0F848
:10C99000204670BD2DE9F74304460F4600F0E4F849
:10C9A0000023054600EB070884F8283004F15406FC
:10C9B000304600F0C0F8237B01332373636802AA7A
:10C9C0005B1B002B236842F8043DD8BF656091468D
:10C9D0003BB15869401B002803DC03F108029B6847
:10C9E000F6E7236003B11C6100231360304600F0BA
:10C9F000A4F8019B494673B1D3F808E01A46002514
:10CA0000D0689560154608B10246F9E70A6003F15F
:10CA100008017346EFE7019D2DB32B6AD5F8089006
:10CA200013B105F124009847AB69002B0ADB6A6952
:10CA300013446B6100F098F8294602462046FFF740
:10CA400063FE0EE02B790133DBB22B71626913FABE
:10CA500002F208BF01232B71204605F12401FFF7E4
:10CA600051FF4D46D8E700F07FF8002F814618DBD4
:10CA7000C0EB0805002D16DCE36A002B3ED03046E3
:10CA800000F059F8E36A43B1226832B15169206B72
:10CA9000C9EB010121EAE1719847012384F82830AC
:10CAA0001FE04FF0FF35304600F045F823683BB1FA
:10CAB0005B69C9EB030121EAE1718D4228BF0D4694
:10CAC000304600F03AF804F13400294600F042F80C
:10CAD000A3687BB1304600F02EF8A3683BB1013B60
:10CAE000A360304603B0BDE8F04300F026B83046FE
:10CAF00000F023F800F038F8054657E703B0BDE82A
:10CB0000F08340F8101C704740F80C1C704740F848
:10CB1000081C704708B50448FFF795FD034A1368E1
:10CB20000133136008BD00BF7C3900204C39002060
:10CB300000207047704706F01FBA06F061BA08B5CA
:10CB400010B1002104F0ECF9002008BD04F001BA96
:10CB500004F0FCB908B541EAE17104F0F4F90028E9
:10CB6000D4BF0020012008BDF0B51C4B1C4E1D7821
:10CB700085B01F464DBB1B4C1B48FFF772FD20467E
:10CB8000FFF780FD194B1848236065623560FFF799
:10CB900026FD04F11805164B00932846154B039308
:10CBA000FFF7EBFB3DB1039B1BB15B682846694671
:10CBB0009847039B63620B484FF07A71FFF7A2FC22
:10CBC0006846FFF7DAFB01233B700748FFF733FDA8
:10CBD000336800EB034005B0F0BD00BF50390020C2
:10CBE0004C390020543900207C39002010FA020012
:10CBF00015CB0100C0F90200704703680BB108466D
:10CC000018477047F0B5456807682B680C4607C998
:10CC100087B09E6801AB83E80700E26804920022B7
:10CC20000592284639461A46B04707B0F0BD0000C5
:10CC300070B50446002521600E464560294608303F
:10CC40000C220DF06DFD084BA56163614EB9074DD7
:10CC50002B6813B903F02CFD2860236855F82330A6
:10CC60006360204670BD00BFFBCB0100AC390020E3
:10CC700070B560B90E4C25683DB91C2004F040F930
:10CC800029460646FFF7D4FF2660206870BD094C90
:10CC90002368DB070AD4204604F0ECF830B10648DC
:10CCA0000121FFF7C5FF204604F00EF9024870BDD0
:10CCB0008C390020B039002090390020436810B52D
:10CCC000044613B9044803F0B3FF60680368BDE885
:10CCD00010409B69184700BF7AFA0200436810B5FC
:10CCE000044613B9044803F0A3FF60680368BDE875
:10CCF00010401B6A184700BF7AFA0200436810B55B
:10CD0000044613B9044803F093FF60680368BDE864
:10CD100010409B6B184700BF7AFA020030B50B46F3
:10CD2000044600F1080507C985E80700DB68636170
:10CD30000023A36130BD0000034607B59A680830A0
:10CD400032B1054A22B102A941F8043D5B69984716
:10CD500003B05DF804FB00BFF9CB0100704708B5D4
:10CD60000846FFF785FFBDE80840FFF7E5BF30B58F
:10CD70004FF47A7440F271256143B1FBF5F189B249
:10CD8000032983809DF80C30837198BF04230180B0
:10CD900098BF03800388B3F5804F88BF4FF480436A
:10CDA00004FB02F2B2FBF5F292B288BF0380032AC1
:10CDB00098BF0423428098BF43804388B3F5804FD7
:10CDC00084BF4FF48043438030BD70DF704771DF14
:10CDD00070470BF089B80000064B10B51C783CB9C1
:10CDE000012220461A7003F061FC2146FFF7B7FFCD
:10CDF000002010BDB83900202DE9F047054686B067
:10CE000006F0AAF9284608F0B9FA284600F02CFAEC
:10CE1000002003F04BFC036881469B699847D9F8D2
:10CE2000003004461B6A48469847D9F80030074648
:10CE3000DB6A484698472B88103B0D2B00F2EA80AE
:10CE4000DFE813F00E006700E800E800E800A70044
:10CE5000E800E800E800E800E800B000E800C800EA
:10CE6000AE8895F816802046314601F07DFB94F897
:10CE70005830297AEA7B03F0FE0343F0020384F87A
:10CE8000583094F85630013384F8563000238DF82A
:10CE900003108DF804308DF805308DF806308DF8CC
:10CEA00007308DF808308DF809308DF80A208DF89C
:10CEB0000B308DF80C308DF80D308DF80E308DF86C
:10CEC0000F308DF8103005F1090105F11803062225
:10CED00001A8ADF800608DF8028005930DF022FBEB
:10CEE0000DF10B0005F1100106220DF01BFBD4F82B
:10CEF0009830C4F89C30D4F89C00002800F08A8058
:10CF0000C36869469847D4F89C30002BEFD01B6962
:10CF1000EFE74FF6FF712046AE8801F025FBD9F808
:10CF2000003095F808809B6A48469847814631460C
:10CF300000F5F670062200F06DFFB9F83830B34204
:10CF400005D1D9F8343009F134009B68984794F83A
:10CF50005630013BDBB284F856302BB994F8582098
:10CF600063F3410284F85820ADF800608DF8028028
:10CF7000D4F8A430C4F8A830D4F8A800002849D0C8
:10CF8000C36869469847D4F8A830002BF0D01B69D5
:10CF9000F0E74369AA8805F10801002B3AD0104652
:10CFA000984737E02E7A2EB994F8583066F300038C
:10CFB00084F85830636E6BB31A4A5AB3A366A06EF6
:10CFC00040B3C36831469847A36E0BB9636EF5E76B
:10CFD0001B69F3E72B7C95F80FA005F10901684662
:10CFE000062203F00109C3F34108C3F3C4060DF0A0
:10CFF00099FA05F111038DF806A08DF809600393E5
:10D000008DF807908DF80880D4F88C3004F18000FA
:10D01000694698473846294602F090F906B0BDE8BF
:10D02000F08700BFF9CB010000B5162089B0244974
:10D0300005F03AFC01238DF8003007238DF803300A
:10D0400000238DF801308DF8023068461D491E4BD3
:10D0500048220BF0BDF808B10AF0A4FF032001211B
:10D0600003AA0BF025F94FF4C06307939DF818301D
:10D0700043F001038DF818300423ADF80C3008B1EB
:10D0800007201AE003A80BF02BF90028F8D101A81B
:10D09000FFF79DFE0028F3D101A9FFF796FE0028B7
:10D0A000EED10A480BF0DEF880B230B908480BF038
:10D0B000E3F880B208B900F099F909B05DF804FB13
:10D0C0008D820200BC390020D9CD0100F9CD0100CC
:10D0D000D3CD01000346002210B503F8012B00F167
:10D0E0001102002403F8014B9342FAD1418210BD92
:10D0F00008B503783BB90B788BB9428A4B8A9A42C0
:10D100000DD1012008BD012B09D10B78012B06D1CF
:10D110000130013110220DF0D3F90028F1D00020A8
:10D1200008BD0000F0B590F85F30022B8FB00446C8
:10D130000E4640F08C802422002105A80DF0F0FA64
:10D1400006A80021FFF7C6FF00238DF82C30ADF8AC
:10D150002E30ADF83030ADF83230ADF83430D4F890
:10D160009421059B9A421DD104F5CC7006A9FFF7C6
:10D17000BFFFB8B194F8AC319DF82C2053405B064A
:10D1800010D1B4F8AE21BDF82E309A420AD1D4F8AD
:10D19000B0210C9B9A4205D1B4F8B421BDF83430CB
:10D1A0009A4251D004F5CA7566BB94F85C301822D7
:10D1B00002FB03433146B3F87630A4F8B23104F1F0
:10D1C00030076846FFF786FF38466946FFF790FF4D
:10D1D00090B9384604F5CC71FFF78AFF90B131461B
:10D1E00005A8FFF777FFA01D05A9FFF781FF80F0D5
:10D1F000010010F0FF0F05D0636C04F144000BB187
:10D20000184B5BBB0021242205A80DF089FA0EAF54
:10D2100006A80021FFF75EFF00238DF82C30ADF843
:10D220002E30ADF83030ADF8323005AE27F8043D81
:10D230002B46324603CABA4218605960164603F1BB
:10D240000803F6D112881A80012384F85F3094F81D
:10D250005C30013384F85C300FB0F0BD236D29469B
:10D260009847CFE7F9CB01007FB50446002003F0D3
:10D270001DFA03689B6A98472388303B054600F1F6
:10D28000340600F5F670092B00F29E80DFE803F00B
:10D29000059C1284911E2A9C4665E3882BB9304672
:10D2A00004F10C0102F0D0FA8EE06B6B30469B6803
:10D2B000984789E0E388304623B904F10C0102F075
:10D2C0004DFB81E00021FFF72DFF7DE06B6B3046C9
:10D2D0005B689847002877D0304604F10C0102F0D3
:10D2E00095FB71E0A388ADF80030A389ADF802305A
:10D2F000E389ADF80430123434F8023CADF806305E
:10D300000294AB68EB60E86800285DD0C3686946AA
:10D310009847EB68002BF4D01B69F3E7A388ADF8BE
:10D320000030A389ADF80230A37B8DF80430238A46
:10D33000ADF80630143434F8023CADF808300394EC
:10D340006B69AB61A86900283ED0C36869469847FD
:10D35000AB69002BF4D01B69F3E7A388ADF800306C
:10D36000A389ADF80230A37B8DF80430123434F871
:10D37000023C0294ADF806302B6A2BB3164A1AB35E
:10D380006B62686A00B3C368694698476B6A0BB9F9
:10D390002B6AF5E71B69F3E7E388A18823B1B3F5AE
:10D3A000857F0ED100220DE004F10C0200F040FD5B
:10D3B0000AE0E388A18823B904F10C0200F07EFDA5
:10D3C00002E00B2200F026FD304602F051FC304610
:10D3D00002F0D4FB04B070BDF9CB010077DF7047D9
:10D3E00078DF70477ADF70477CDF70471FB5002316
:10D3F00003932823ADF808304FF4C873ADF80A3012
:10D40000ADF80E309DF804301048012262F303039A
:10D4100004AC62F3071304F80C3D0DF067FC0B49F4
:10D4200082B22046FFF7E0FF80B268B94FF4007087
:10D43000FFF7D6FF80B238B902A8FFF7D3FF80B25A
:10D4400010B9FFF7CBFF80B204B010BDCDFA0200D7
:10D4500087DF704768DF704737B50446002003F068
:10D4600025F90368DB6A9847237805460C2B74D8A6
:10D47000DFE803F0500715476C6173547373735BF7
:10D480005D00374B60881B786C6803F00101C3F3C3
:10D490004002C3F3021304B1A04701222EE0237A15
:10D4A000012B02D1A08808F0DDF8AB6860880BB1D1
:10D4B00000219847608801A9FFF7CAFF9DF8043052
:10D4C00003F00F02012A02D0022A07D010E01B0944
:10D4D000013B022B0CD8234AD15C0AE01B09012B2B
:10D4E00004D0022B0CBF0521002102E0042100E042
:10D4F00000216088EB6803B1984700221A4B1A702C
:10D500002BE061896088AB68B1F5805F34BFC9B238
:10D510008821F0E7A08808F0A5F81EE0637AE3B957
:10D520002B696088CBB1984717E0002200E0032206
:10D530000E4B1A6011E00AF007FB0E2803460CD0D0
:10D5400033F0080309D00AF02DFD06E002A90123FB
:10D5500001F8043D608807F097FF03B030BD00BFBD
:10D56000FC2E0020D3FA0200093A0020043A0020E1
:10D57000014B1878704700BF083A0020F7B5214CDE
:10D580001646227805460F46AABB6BB102A9222097
:10D5900041F8083DFFF75EFF30B108282FD0112871
:10D5A0000CBF052004202BE007F0FCFE28BB164A28
:10D5B000137865F3000367F3410366F306131370F2
:10D5C000D37815B143F0030303E065F3000365F37B
:10D5D00041030D48D37007F03DFF10B90B4807F029
:10D5E00025FF072805D0082809D030B9012323706A
:10D5F00006E0042004E0002002E00B2000E006200A
:10D6000003B0F0BD083A0020FC2E002059D40100E0
:10D6100010B5084C1123236007F0A6FF28B9236832
:10D62000112BFCD0034B186818B108280CBF06203A
:10D630000B2010BD043A002013B50C4601A907F0D9
:10D640002FFFA8B99DF8043003F0020202F0FF0199
:10D6500012B10223237017E013F0010313D00B4B18
:10D660001B781BB10123237008460DE023700AE0EC
:10D67000082806D043F2020398420CBF04200B2076
:10D6800002E0062000E0184602B010BD093A002072
:10D69000012910B504460CD002292CD1184B1A7858
:10D6A00042F001026FF341021A70DA7842F001028F
:10D6B00009E0134B1A7802F0FE026FF341021A7070
:10D6C000DA786FF300020E48DA7007F0C3FE014605
:10D6D00018B9204607F0CEFE0146072907D00829D1
:10D6E0000BD031B9074B01221A70084610BD042037
:10D6F00010BD0B2010BD022010BD062010BD00BFC4
:10D70000FC2E0020083A002008B5084B1B78024682
:10D710004BB10020082107F0B9FE28B10E280CBF3C
:10D720000320062008BD092008BD00BF083A0020DC
:10D7300006F098BC02230B708E230B714F230A4610
:10D740004B717C238B710132043106F061BCA2DF86
:10D750007047A3DF704763DF70470000014B002272
:10D760001A6070470C3A00207FB500238DF807300F
:10D7700002AAC15C99540133102BF9D110460DF166
:10D780000701FFF7E8FF10B99DF8070000E000204F
:10D7900007B05DF804FB000003782DE9F743064667
:10D7A000478A13B3274D2C6800F101090023A342D7
:10D7B0001ED025494FEA031E0EEB03000844002249
:10D7C000A2F1020CBCF1010F05D910F8028019F882
:10D7D00002C0E04507D10132102AF1D173440B4455
:10D7E00093F8108021E00133E1E74FF001081CE0DD
:10D7F0004846FFF7B9FF337880460BB906F11209A6
:10D80000042C12D0104E04EB041049461022304470
:10D810000CF088FE2B6803EB031232440021013325
:10D820009170D17082F810802B608DF80680BDF861
:10D830000630002067F30F0063F31F4003B0BDE81C
:10D84000F08300BF0C3A0020103A00202DE9F0418F
:10D8500092B004468DF807200D4603A80DF107018C
:10D8600001221E46DDF87080BDF874700CF05AFE7F
:10D870009DF80C3013F0300F1BD0032204A80021B8
:10D880000CF04EFF9DF81230012262F342038DF836
:10D8900012309DF8103062F3030362F307138DF822
:10D8A00010309DF8113062F3030362F307138DF813
:10D8B00011301C220BA800210CF032FF9DF80C2027
:10D8C0008DF82C2012F0300318BF04AB109347B131
:10D8D000B8F1000F05D0CDF83080ADF83470ADF858
:10D8E00036709DF878100023ADF8143061F3C3034F
:10D8F0009DF87C1061F30413012161F342039DF84C
:10D900006C1012F0320F61F300038DF8163029D03D
:10D91000731E042B26D8DFE803F003070E151C0046
:10D920009DF81430012117E09DF81430012161F3B6
:10D930000303022112E09DF81430012161F3030377
:10D9400003210BE09DF81430022161F30303012150
:10D9500004E09DF81430022161F3030361F307131F
:10D960008DF8143012F00C0F29D0013E042E26D869
:10D97000DFE806F003070E151C009DF815300122A4
:10D9800017E09DF81530012262F30303022212E032
:10D990009DF81530012262F3030303220BE09DF88A
:10D9A0001530022262F30303012204E09DF81530D2
:10D9B000022262F3030362F307138DF8153006A801
:10D9C000002114220CF0ACFE05AB0793BDF86430C7
:10D9D000ADF82030BDF86830ADF82430189B0A93BC
:10D9E00020460BA906AA209B0695FFF7B0FE80B241
:10D9F00012B0BDE8F081F0B587B015461E46012291
:10DA00009DF834300F4602FA02F163F300018DF8FD
:10DA10000210114662F307118DF80010114662F3EF
:10DA2000071104468DF8011001A8002114220CF002
:10DA300077FEBDF830300E9A0197204601A9CDF847
:10DA400008D0ADF80C60ADF810300595FFF781FEF9
:10DA500080B207B0F0BD93DF704794DF7047036872
:10DA60000BB108461847704703680BB108461847C2
:10DA7000704738B502680B689A4205460C4628D1B3
:10DA800003795BB90B7923BBC28ACB8A9A4220D136
:10DA9000227E2B7E53405A060DD01AE0012B18D15E
:10DAA0000B79012B15D10530053110220CF008FD42
:10DAB0000028EDD00DE06A8B638B9A4209D1EA69A8
:10DAC000E3699A4205D1208C2B8C1B1A584258418D
:10DAD00038BD002038BD70B505460E460024281913
:10DAE0003146FFF7C6FF10B94C34E42CF7D170BDB6
:10DAF00007B5ADF8041001A9ADF80620FFF7ABFF9C
:10DB000010280AD001D868B10BE0112807D043F2E1
:10DB10000203984205D1042004E0032002E005201E
:10DB200000E00B2003B05DF804FB07B5ADF804106E
:10DB300001A9ADF80620FFF790FF10280DD004D8FA
:10DB400080B108280DD106200CE0112807D043F23F
:10DB50000203984205D1042004E0032002E00520DE
:10DB600000E00B2003B05DF804FB000070B5044634
:10DB7000002529460C2640F8045BFFF7ABFA29463E
:10DB8000324625766583A583E583258404F1240048
:10DB90000CF0C6FD064B2363656304F1380029468B
:10DBA00032460CF0BDFD034BA5646364204670BD96
:10DBB0005FDA010069DA010010B50446FFF7D6FF0D
:10DBC00004F14C00FFF7D2FF04F19800FFF7CEFFFD
:10DBD000204610BDF8B51E460B6803600B79037133
:10DBE0000D46CB8AC3820446174605311022053004
:10DBF0000CF098FC2B7E23766B8B6383AB8BA3831B
:10DC0000EB8BE3832B8C238497E8070004F1240338
:10DC100083E807000025FB682363656396E8070037
:10DC200004F1380383E80700F3686364A5642046C1
:10DC3000F8BD70B505468AB0038CADF810300E46BD
:10DC4000137855F8241B0190044603918DF8123087
:10DC5000511C538AADF8243010220DF113000CF042
:10DC600061FC03AB0293ADF82660236B284601A943
:10DC700098470AB070BD07B5436C00908DF804104A
:10DC800038306946984703B05DF804FB2DE9F04150
:10DC9000A6B00B6800930C460B798DF80430053163
:10DCA000B1F81130ADF8163090460DF10500102294
:10DCB0000CF038FC237E8DF8183004F12406638BB9
:10DCC000ADF81A3096E80700A38BADF81C30E38B53
:10DCD000ADF81E30238CADF8203004F1380509ABC7
:10DCE00083E8070095E80700236B0C930EAB83E8ED
:10DCF00007000027636C119313A80D971297FFF785
:10DD000035FF13AB22460DF16C0E1F4603CF77454E
:10DD1000106051603B4602F10802F6D13B88138047
:10DD20001CAB93E807001F9B86E80700236321AB29
:10DD300093E807000026249B666385E80700636478
:10DD4000A66468464146FFF796FF26B0BDE8F0811D
:10DD500030B595B0044601A8FFF708FF204601A999
:10DD6000FFF787FE0546B0B1236B0D9A9A4211D199
:10DD70000AA804F124010C220CF0A2FB50B9636C38
:10DD8000129A9A4206D10FA804F138010C220CF025
:10DD900097FB00B10025284615B030BDF8B5064602
:10DDA0000F460025741920463946FFF762FE28B158
:10DDB0002046FFF7CDFF08B92046F8BD4C35E42DCD
:10DDC000F0D10020F8BD10B50446FFF7E7FF01468B
:10DDD00028B120460022BDE81040FFF757BF10BD14
:10DDE00070B50E46044600F1E405238CB34205D11C
:10DDF0002046FFF7ADFF08B9204670BD4C34AC4259
:10DE0000F3D1002070BD08B5FFF7EAFF003018BF5E
:10DE1000012008BD38B505461446FFF7E1FF01466D
:10DE200028B128462246BDE83840FFF72FBF38BD4D
:10DE30002DE9F04387B005460E461746FFF7D0FFA1
:10DE40000446002837D04FF0000839881FFA88F3BD
:10DE50008B424FF0060218D202FB037208F1010850
:10DE60009379012B0BD1B2F80290918801A8FFF7AA
:10DE700031F92046494601AAFFF7DBFEE5E7518864
:10DE800030460A46FFF751FE0FE0013902FB0172EE
:10DE90005188E28B013189B2914203D9284621464B
:10DEA000002206E03046FFF723FE024618B128465E
:10DEB0002146FFF7EBFE07B0BDE8F0832DE9F04304
:10DEC00087B004460D461746FFF78AFF064600282E
:10DED00054D04FF000093A881FFA89F8904536D29D
:10DEE000BB78012B07D1122303FB087301A8D98843
:10DEF000FFF7F0F81FE0002301AA1A4401330021C4
:10DF0000102B5170F8D101238DF80430122303FB3C
:10DF100008739A1D0DF10501163352F8040B41F8F0
:10DF2000040B9A42F9D19DF812209DF8113043EA72
:10DF30000223ADF81630122303FB08783046B8F8F8
:10DF4000041001AAFFF775FE09F10109C3E7013AC0
:10DF5000122303FB02729188F28B013189B2914244
:10DF600003D920463146002206E02846FFF7C0FDCF
:10DF7000024618B120463146FFF788FE07B0BDE8DB
:10DF8000F08370B50646002574192046FFF7E0FEC1
:10DF900018B94C35E42DF7D170BD204670BD2DE980
:10DFA000F0474D8BB1F81EA0B1F820900235ADB20C
:10DFB000AA4594B004460E4690461F4609D214A9BD
:10DFC00000243846029441F84C6DDB68984720469F
:10DFD00039E04946FFF717FF08B1052033E0204636
:10DFE000FFF7CFFF04460028F7D04846294652469F
:10DFF000FFF77EFD38BB314642463B4601A8FFF79E
:10E00000E9FD09AE01AB22461D4603CDB5421060C5
:10E0100051602B4602F10802F6D12B8813800AAA20
:10E0200007CA04F1240383E807000D9B2363002340
:10E0300063630FAA07CA04F1380585E80700129A3E
:10E040006264A364184614B0BDE8F0870284BDF88A
:10E0500000204283BDF804208283027E016063F3C6
:10E060000002C3F3400161F34102C3F3800161F395
:10E070008202C3F3C00161F3C302C3F3001161F371
:10E080000412C3F3401161F34512C3F3801363F329
:10E09000861202767047F0B587B002849DF8305042
:10E0A0000160002206468DF8042001A911440132C6
:10E0B0000020102A4870F8D101ACADF816300FCC12
:10E0C000371D0FC723683B60BDF834307383BDF83C
:10E0D0003830B383337EC5F3400265F3000362F347
:10E0E0004103C5F3800262F38203C5F3C00262F309
:10E0F000C303C5F3001262F30413C5F3401262F3C5
:10E100004513C5F3801565F38613337607B0F0BD6C
:10E1100070DF704771DF704772DF704773DF7047E1
:10E1200074DF704775DF704776DF704777DF7047C1
:10E1300078DF704779DF70477ADF70477BDF7047A1
:10E140007CDF70477DDF70478ADF70478BDF704769
:10E150008CDF704714207047642070474FF42050C4
:10E16000704708B5FFF7F2FF002814BF0520002014
:10E1700008BD10B50446FFF7D3FF30B994F8583006
:10E1800060F3000384F8583010BD032010BD3B2A13
:10E19000084608B50CBF3B211321FFF7C5FF002837
:10E1A00014BF0320002008BD10B50A4601680C6AA0
:10E1B000B0F81C112346BDE81040184708B50846C2
:10E1C000FFF7BCFF002814BF0320002008BD08B5DE
:10E1D0000846FFF7B1FF002814BF0320002008BD48
:10E1E00008B508461146FFF79DFF002814BF03201D
:10E1F000002008BD08B508461146FFF7A3FF002818
:10E2000014BF0320002008BD08B50846FFF790FFA3
:10E21000002814BF0320002008BD08B50846FFF7FA
:10E2200089FF002814BF0320002008BD08B5084658
:10E23000FFF77CFF18B111280CBF0520032008BD93
:10E24000024B0B6008231360704700BFE4FA020022
:10E250000820704780F8B8100020704780F8B91087
:10E26000002070470220704790F8B800704790F87F
:10E27000B90070470020704703680BB10846184783
:10E28000704703680BB10846184770470346826F12
:10E2900093F8F3106C301047034610B107C983E8B8
:10E2A00007007047704742680368806812F0010FEA
:10E2B0004FEA620218BF8158104418BFCB58184764
:10E2C000012913B50C4607D811460DF101000622AD
:10E2D0000CF028F9002005E08B1E012B01D903204A
:10E2E00007E0012002A901F8084DFFF711FF0028FF
:10E2F000F5D102B010BD37B568460D461446FFF79C
:10E3000009FF60B915B19DF800302B7020463CB173
:10E310000DF1010106220CF005F9002000E00320B8
:10E3200003B030BD70B5002306460D4696F8BA20FE
:10E33000D8B282420ED95C1C6B7983420AD92B6811
:10E34000C0EBC0003118BB31184407220CF0EAF8CA
:10E350002346EBE72871002070BD37B59DF80430E7
:10E36000012262F3030302AC62F30713084604F8C8
:10E37000043D0D460CF0BAFC294682B22046FFF758
:10E38000DFFE002814BF0320002003B030BD0000D2
:10E3900008B50121044A022004F076FE002814BFCB
:10E3A0000B20002008BD00BF65E8010070B50368C0
:10E3B0000E79DB6C04460D46984786422CD82A79A4
:10E3C0000023D9B2914209D2C3EBC3012868415C52
:10E3D000032903F10103F4D1042070BD002184F866
:10E3E000BA102B794E1CC9B28B4213D994F8BA00DB
:10E3F0002B68C0EBC0002044C1EBC1011944BB3005
:10E4000007220CF08FF894F8BA30013384F8BA3050
:10E410003146E6E7002070BD032070BD10B50C4604
:10E42000C97F1F290ED809B9032010BD2046D37F0C
:10E43000FFF772FE0028F7D1208CFFF779FE002845
:10E44000F2D110BD012010BD70B5044686B0D4F8DD
:10E45000B030C4F8B430D4F8B40040B1C368214639
:10E460009847D4F8B430002BF1D01B69F1E7D4F809
:10E47000B0502DB12E69284602F04EFD3546F8E722
:10E4800094F85830C4F8B05065F3000365F34103C5
:10E4900084F8583029461F2284F8565084F85C507E
:10E4A00004F10A000CF03CF984F8295004F134001E
:10E4B00029461F220CF034F9606E84F8535020B1C5
:10E4C000056902F029FD2846F9E76066D4F898004E
:10E4D00020B1056902F020FD2846F9E7D4F8A450E0
:10E4E000C4F898002DB12E69284602F015FD354676
:10E4F000F8E701AE2946C4F8A45030460C220CF0CF
:10E500000FF996E8070004F16C0383E807000B4B52
:10E51000A3672946E56730460C220CF001F996E81E
:10E52000070004F1800383E80700054BC4F88C3032
:10E530002846C4F8905006B070BD00BF83E20100C9
:10E5400079E2010010B50446FFF77EFF50B94FF69F
:10E55000FF7384F8BA00A4F81C3184F8B80084F87A
:10E56000B90010BD062010BDA0F81C117047B0F80E
:10E570001C0170472DE9F04F06468FB000200C4675
:10E5800002F094F80368DB6A9847FEF7F1FF70B178
:10E5900000238DF80C3001AB029308238DF8143062
:10E5A00002A806AB0493FFF7AFF820B156E08DF850
:10E5B0000C008DF8140000252573257196F8BA30EB
:10E5C000EFB2BB4249D94FEAC70BC7EB0B03F218B6
:10E5D00092F8BB20022A35D14FF000099DF8143083
:10E5E0005FFA89F8434536D9049BC7EB0B003044EA
:10E5F000BB3053F82810FFF79BF84FEA880A09F15F
:10E6000001090028EAD0049B227B53F80A10A36872
:10E6100043F82210237B013323739DF814305A1ED4
:10E6200090451FBF03F1804303F1FF33049A52F872
:10E63000233018BF42F80A309DF81430013B8DF8A2
:10E64000143008E0217922683344BB3342F821308A
:10E650002379013323710135B0E700200FB0BDE805
:10E66000F08F30B50546087801289BB00C4614D0D1
:10E6700003284B8806D1A03B9BB243F660729342BD
:10E680003CD805E0203B9BB243F6E072934206D8AB
:10E69000A388B3F5804F02D203E002202EE00320CE
:10E6A0002CE00AAB009312AB029300238DF80430E8
:10E6B0008DF80C3095F8B83023B128466946FFF73D
:10E6C00059FFD8B904A8002118220CF029F82378A2
:10E6D0008DF8103095F8B8308DF818306388ADF8A3
:10E6E000203004A8A388CDF81CD0ADF82230FFF765
:10E6F00015FD18B104280CBF072003201BB030BD46
:10E7000030B599B008AB009310AB029300238DF89D
:10E7100004308DF80C3090F8B93005460C46EBB952
:10E720009DF81030A279CDF814D062F3000395F86B
:10E73000B92062F341038DF810302388ADF818300A
:10E740006388ADF81A3004A8A388ADF81C30FFF731
:10E75000FBFC002814BF0320002004E06946FFF7FB
:10E7600009FF0028DCD019B030BD70B59CB004465C
:10E770001D468DF800200DF101000622209E0BF0B1
:10E78000D1FE55B12B88ADF808306B88ADF80A3052
:10E79000AB88ADF80C30EB8809E03223ADF80830D7
:10E7A0006423ADF80A30ADF80C504FF41673ADF891
:10E7B0000E300CAB049314AB069300238DF8143089
:10E7C0008DF81C3094F8B93004ADABB99DF8203009
:10E7D00094F8B920099562F34103DBB29EB1B27996
:10E7E00062F300038DF820303388ADF82830738849
:10E7F000ADF82A30B38813E020462946FFF7BAFE69
:10E800000028E3D02CE094F8322062F300038DF866
:10E810002030A38DADF82830E38DADF82A30238E5B
:10E82000ADF82C30684608A902AAFFF791FCB8B1F0
:10E8300008280ED003D804280DD0072806E0112898
:10E840000BD043F20223984209D0102807D00B20A6
:10E8500006E0062004E0072002E0052000E0042096
:10E860001CB070BD7FB50546002001F01FFF036896
:10E870009B699847114B80F8F350009300F586751B
:10E880000023044600F1F406019302900C4B03931D
:10E890002846FDF772FD45B1039B1BB15B68284616
:10E8A00069469847039BC4F8183130460021FDF7AC
:10E8B00029FE6846FDF761FD04B070BD8DE20100E0
:10E8C000D8FA02000220704700207047704790DF9E
:10E8D000704796DF704798DF704790F893000030DC
:10E8E00018BF0120704708B5084611461A46FFF7C1
:10E8F000F0FF18B111280CBF0520062008BD1FB578
:10E900008DF80410ADF806300021069B8DF8051037
:10E91000ADF80810ADF80A301046079B039301A923
:10E92000FFF7D9FF48B1112806D043F204039842FB
:10E930000CBF0720062000E0052005B05DF804FBB1
:10E9400003680BB108461847704703680BB10846C7
:10E950001847704703680BB108461847704700F521
:10E96000F670FFF71CBB00F5F670FFF7B4B800F5C2
:10E97000F670FFF728BA70B505460C4607C986B091
:10E98000E66801AB83E8070005F5DA74002384E844
:10E990000700C5F8C061C5F8C43106B070BD2DE9E7
:10E9A000F047154600F134070446884607CA8AB086
:10E9B0008DE8070093E80700D5F80CA0D3F80C9079
:10E9C00005AD85E80700384601F085FA864600283F
:10E9D0004AD19DE8070004F1500383E8070095E859
:10E9E000070004F17803C4F85CA0C4F860E083E891
:10E9F0000700129BC4F88490C4F888E004F13A023E
:10EA000003F1140153F8040B42F8040B8B42F9D1C3
:10EA1000139B04F1640203F1100618685968154647
:10EA200003C50833B3422A46F7D11868286000228C
:10EA30000121A4F8388084F8912084F8902084F88B
:10EA400093104046FFF743FF044678B1384601F083
:10EA50007AFD112C06D043F202039C4207D0072C0A
:10EA600002D104E0052003E0062001E000E00420DC
:10EA70000AB0BDE8F08700002DE9F0470646894658
:10EA800015469A46036807CA92B0D3F80080EB682F
:10EA90000693002503AC84E807000DAF29460C223D
:10EAA00008A807950BF03CFE084B0B932946384607
:10EAB0000C95FEF70FFBCDF800A0019730464946B4
:10EAC000224608ABC04712B0BDE8F0874BE9010011
:10EAD0002DE9F04186B0002101AC05468180204639
:10EAE000FEF7F8FA2646AB1D05AF324603CABA4216
:10EAF00018605960164603F10803F6D110681860D3
:10EB0000002120460C220BF00BFE94E8070005F1D3
:10EB10001C0383E807004FF00008114BAB6241462D
:10EB2000C5F82C8020462746FEF7D4FA0FCF05F112
:10EB300030060FC63B683360414620460C220BF07E
:10EB4000EFFD94E8070005F1440383E80700054B57
:10EB50002B654046C5F8548006B0BDE8F08100BF83
:10EB600041E901004BE9010070B586B00446FFF7AA
:10EB7000AFFF054678BB4FF0FF3301AE84F85C0071
:10EB800084F85D0084F85E0084F85F00C4F85001EA
:10EB9000C4F85431C4F85831C4F85C31C4F8603159
:10EBA000C4F86801C4F86C31C4F87031C4F8743129
:10EBB000C4F8783129460C2230460BF0B1FD96E8B6
:10EBC000070004F5C07383E80700054BC4F88C31D7
:10EBD000C4F8905100E00625284606B070BD00BF7D
:10EBE00055E9010070B50446E36A2363206B38B130
:10EBF000C36821469847236B002BF5D01B69F4E7C7
:10EC0000E06A20B1056902F087F92846F9E7E06279
:10EC1000A06820B1056902F07FF92846F9E7A060F5
:10EC2000606920B1056902F077F92846F9E7256A9D
:10EC300060612DB12E69284602F06EF93546F8E77D
:10EC4000256204F13400FFF78FFF284670BD0000F5
:10EC500070B58AB024220446002101A80BF060FDA3
:10EC60000AAE02A80021FEF735FA00238DF81C3009
:10EC7000ADF81E30ADF82030ADF8223026F8043D56
:10EC800004F5CA7201AB1D4603CDB5421060516058
:10EC90002B4602F10802F6D12B8813802368204608
:10ECA0005B689847002384F85F3050B1D4F8803116
:10ECB0003BB1054B2BB1D4F88C31A18804F5C07061
:10ECC00098470AB070BD00BFF9CB010008B53430D9
:10ECD000FFF7BEFF08BDA0DF7047A4DF7047A5DFC8
:10ECE0007047A6DF7047A8DF7047A9DF704767DF6E
:10ECF00070470020704773B51546026800930E46B2
:10ED000094684FF6FF7132462B46A04702B070BDA3
:10ED100013B5049C0193002000902088ADF80000FA
:10ED2000084611466A46FFF7DAFF18B9BDF8003009
:10ED3000238000E0032002B010BD73B515460268C1
:10ED400000939DF8183001930E4614694FF6FF7139
:10ED500032462B46A04702B070BD2DE9F041044673
:10ED600000200F46164601F0A1FC03689B699847F6
:10ED700023689D69FFF7FBFB3A4601463346204670
:10ED8000AC46BDE8F041604770B586B00C4615460C
:10ED90009DF82C10019300220092BDF82820ADF8B8
:10EDA000002009B9427910E0204629466A46FFF75B
:10EDB00094FF002814BF032000206AE000EBC10686
:10EDC000B6F8C460AE4203D001319142F6D33FE0C1
:10EDD00000EB8100426F92F8202012F0300F37D004
:10EDE00005930AAB12F0100F04934FF6FF7314BF94
:10EDF0000122022200209C42ADF808508DF80A2022
:10EE0000ADF80C0007D101F051FC03689B699847ED
:10EE1000FFF7ADFB0446204602A9FFF762FF80B270
:10EE2000B8B3112812D001DC082806E043F203032E
:10EE300098420BD043F20143984201D1062028E0CA
:10EE4000204629466A46FFF748FF40B9052020E0E2
:10EE5000204629466A46FFF740FF0C2801D10320CF
:10EE600017E006D80528FAD0072811D088B10B2062
:10EE70000FE010280CD003D80F28F8D1082008E0A4
:10EE800043F202039842EAD0B0F5505FE7D0EEE7D4
:10EE9000042006B070BD7FB5D58B42791C46002397
:10EEA000934217D200EBC306B6F8C460AE420FD14E
:10EEB00000EBC3030DF10E05B3F8C8200223ADF833
:10EEC0000E30036800959D6803ABA84720B112E09F
:10EED0000133E5E704200EE0BDF80E30022B07D128
:10EEE000BDF80C3013F0030304D00123237002E0BB
:10EEF000062000E0184604B070BD2DE9F04F05462D
:10EF000095B008468946FEF747FC0DF150080DF113
:10EF1000360248F8180D01204146FFF7DCFE08B123
:10EF20000320C8E0BDF83630A9F81C30074699F830
:10EF30001420FBB29A4249D96A79132A01D90720D1
:10EF4000B9E0D9F8182052F823406369002B42D168
:10EF5000638B002B3FD194F82030022B3BD133E060
:10EF6000616994F8202094F821300091618B01911F
:10EF7000218B0291217F0391CDF810A0CDF814B020
:10EF800094F82910069194F82A100791697905EBF5
:10EF9000C101C431089100204146FEF757FC00280A
:10EFA000BED16B7905EB830205EBC3035467B3F85D
:10EFB000C430E3836B7901336B71824694F8282067
:10EFC0005FFA8AF39A4230D80137B0E72B790133E0
:10EFD0002B7100206FE02046FEF7DEFB00260E902E
:10EFE000B346B24694F82820F3B29A42B8D9626A7E
:10EFF00052F8232000238DF83C300FA91944013327
:10F000000020102B4870F8D142F6011310460FA9CA
:10F010000B92ADF84E30FEF76BF80B9A18B1D2F8A0
:10F0200014A0B2F81AB00136DCE795F88421072A5B
:10F0300085D8626A52F8236000238DF83C300FAA0D
:10F040001A4401330021102B5170F8D142F60113FC
:10F0500030460FA9ADF84E30FEF74AF8834638BB6C
:10F060003046FEF799FB328B738B0092327F019210
:10F0700095F884210E9005EB420202F5C3720292CC
:10F08000584641467269FEF7B6FC00287FF448AF47
:10F0900095F8843105EB830205EB4303C2F8646104
:10F0A000B3F88631F38395F88431013385F88431E0
:10F0B0000AF1010A82E715B0BDE8F08FF0B5044609
:10F0C00087B0236B6363606B38B1C3682146984790
:10F0D000636B002BF5D01B69F4E7206B20B1056949
:10F0E00001F01AFF2846F9E7206320716071E0689B
:10F0F00020B1056901F010FF2846F9E7E060A0693A
:10F1000020B1056901F008FF2846F9E7656AA061AA
:10F110002DB12E69284601F0FFFE3546F8E701AE15
:10F120002946656230460C220BF0FAFA96E8070091
:10F1300004F13803104F83E8070029466764A5648B
:10F1400030460C220BF0ECFA96E8070004F14C0371
:10F1500083E807002946A765E56530460C220BF0D9
:10F16000DFFA96E8070004F1600383E80700284609
:10F17000E766256707B0F0BD55E9010010B500222C
:10F18000417900F1700310468A4207D253F8044FC8
:10F19000248BA04238BF20460132F5E710BDF8B5F8
:10F1A000D0F8A03106460F4643B1D0F8AC3123B1B8
:10F1B000D0F8B831CBB9022300E001230C2202FBC6
:10F1C00003F404F5CC7035183046FFF7D7FF0AF08A
:10F1D0008BFE3319C3F8A0010020A3F89C01A3F80B
:10F1E0009E01A3F898712846F8BD0020F8BD10B51F
:10F1F00002460023D2F8A0414CB1B2F898418C42AB
:10F2000005D10C2202FB030000F5CC7010BD0133C8
:10F21000032B02F10C02EDD1002010BD10B5FFF759
:10F22000E6FF044630B180680AF066FE0023A36062
:10F23000012010BD10BD38B5044600F12405D4F8F6
:10F24000A00120B10AF058FE0023C4F8A0310C340C
:10F25000AC42F4D138BD38B50546FFF72FFF044660
:10F26000E8B9214605F1740050220BF059FA214605
:10F2700005F5B27020220BF053FA214605F1C400C7
:10F2800008220BF04DFA05F5C370214610220BF051
:10F2900047FA85F884412846FFF7CDFF00E00624B1
:10F2A000204638BD0B680BB9036002E0024B0360D7
:10F2B00000234360704700BFF9CB010038B5044616
:10F2C0000D466368A360A06838B1C36829469847B3
:10F2D000A368002BF5D01B69F4E738BDC368184755
:10F2E00030B5042987B015460DD0052915D003295E
:10F2F00022D100F13804214604A8FFF7D3FF049B74
:10F30000B3B9059B12E000F14C0421466846FFF7B3
:10F31000C9FF009B63B9019B08E000F1600421462E
:10F3200002A8FFF7BFFF029B13B9039BDB0703D5BE
:10F3300020462946FFF7D2FF07B030BD2DE9F04344
:10F340000B88502B8DB005460C4617D00DD8012BDD
:10F350002DD0022B40F0DC818C882146FFF71FFF67
:10F3600020460021FFF7C3FCD2E1522B2ED034D32C
:10F37000532B40F0CD81CF88052139E0CF884279E9
:10F380000023934211D205EBC301B1F8C810B94272
:10F3900009D105EB83035E6F96F8202012F0300F41
:10F3A00040F0A08101E00133EBE7022120E00C7A7C
:10F3B000EB682B612869002800F0AA81C368214608
:10F3C00098472B69002BF3D01B69F2E7888800214E
:10F3D0000A460B46FFF789FC9AE18B79012B05D091
:10F3E000022B40F095810F89072101E00F8906214A
:10F3F0006B7900269E4222D205EBC602B2F8C420E9
:10F40000BA421AD10629B04600F02B81072920D034
:10F41000022940F06281A388ADF82030237B8DF86B
:10F420002430E389ADF82630123434F8023CADF8CC
:10F430002270ADF828300B940DE10136DAE7072988
:10F44000A37B40F06581053B012B00F261814FF009
:10F45000FF382846FFF792FEA37BA688052B45D0F0
:10F46000062B4AD0042B40F0A280B4F81080B4F8E8
:10F47000129008EB0903834211DC28463146FFF75E
:10F48000B6FE074600283ED0C38823B922894280B1
:10F49000A0F804800AE081881944414502D0304632
:10F4A0009D4963E02189428891425DD1B86804F1A9
:10F4B0001405184429464A460BF034F8B4F8128073
:10F4C000FB884344FB8008A8002110220BF028F998
:10F4D00002238DF8203001238DF82630238AADF8E1
:10F4E0002830ADF82A800B953046F2E031462846A8
:10F4F000FFF794FE30468949ECE028463146FFF795
:10F5000076FE074610B930468549E3E004A800219D
:10F5100010220BF005F9ADF810607B88ADF81230C1
:10F52000BB88ADF8143005EB8808FB88D8F8740068
:10F53000ADF81630BB68069390F82A3033B1C36C2F
:10F5400004A940309847BDF81C306BB9FB88ADF872
:10F550000030BB88ADF802303046BB687988019333
:10F560006A46FFF7BAFB20B16D493046FFF7BBFB97
:10F5700018E06A493046FFF7B6FBADF820607B889B
:10F58000ADF82230A37B8DF82430BB88ADF826304F
:10F59000FB88ADF8283005F11400BB680B9308A96F
:10F5A000FFF78CFE28463146FFF738FEB0E0002119
:10F5B000102268460BF0B4F8238AADF80060ADF86D
:10F5C000043004F11406638AADF8063004A8002163
:10F5D000102205EB8808ADF8027002960BF0A0F837
:10F5E00002238DF81030D8F8740001238DF81630FE
:10F5F00090F82A302BB1C36C694640309847BDF86B
:10F600000C30BDF80420ADF81820BDF80620ADF888
:10F610001A20029AADF8143007922BB19DF81630DB
:10F620006FF300038DF81630A08804A9FFF75BFB89
:10F63000BDF81430002B6BD1A388ADF82030A37B2C
:10F640008DF82430238AADF82630638AADF8227015
:10F65000ADF828300B9605F1140008A9FFF72EFE2F
:10F6600056E00021102204A80BF05AF805EB86059D
:10F67000A388ADF8103008A8E389ADF81430002154
:10F680001022ADF812700BF04BF80123686F8DF863
:10F69000203090F829302BB1836B04A92C30984787
:10F6A000BDF81C30ADF82430BDF81C3083B9069A83
:10F6B00072B19DF826300B9243F001038DF826308D
:10F6C000BDF81430ADF82830BDF81630ADF82A304A
:10F6D000A08808A9FFF707FB1AE028463A46FFF77B
:10F6E000FFFD15E0E17CA37C900643EA012301D5F0
:10F6F0009F0707D4D40607D513F0010F0CBF0421D0
:10F70000032102E0032100E004212846F28BE6E712
:10F710000DB0BDE8F08300BFC0FB0200D0FB0200CB
:10F72000E0FB020090DF704792DF704795DF704783
:10F7300038B502680B689A4205460C4601D0002095
:10F7400017E004300431FDF7D3FC0028F7D0227E07
:10F750002B7E53405A06F2D16A8B638B9A42EED1CC
:10F76000EA69E3699A42EAD1208C2B8C1B1A584231
:10F77000584180F0010038BD38B50446002540F8F6
:10F78000045B2946FDF7A6FC25766583A583E58302
:10F790002584204638BD016810B5034671B11A466C
:10F7A0004C1E406842F8044B03EB81039A4204D09C
:10F7B00052F8041F42F8041CF8E710BD4FF0FF3068
:10F7C00010BD016810B5034671B11A464C1E406861
:10F7D00042F8044B03EB81039A4204D052F8041F11
:10F7E00042F8041CF8E710BD4FF0FF3010BD0000D8
:10F7F00013B5044623686269D3B10323114982F823
:10F800005F30636808680090182101FB03237033A0
:10F810009988ADF80410DB889088ADF80630694609
:10F8200001AAFFF783FF50B12046FFF7B4FFE1E7DD
:10F8300092F85F30032B04BF012382F85F3002B0DF
:10F8400010BD00BF1CFC020000232DE9F04380F82E
:10F850005C300A78C0F85031042A4FF0FF3388BF7B
:10F86000042287B0044680F85D20C0F85431C0F807
:10F870005831C0F85C31C0F860310D468046002731
:10F8800094F85D309F4232D22B797BB9D4F8503155
:10F890005A1C04EB8303C4F85021C3F85471EA885E
:10F8A0002B89A8F87630A8F874201BE001A8698895
:10F8B000FDF710FCB5F806C0B5F808E001AB08F19B
:10F8C00060020DF114091E4603CE4E4510605160D2
:10F8D000334602F10802F6D130681060A8F874C00F
:10F8E000A8F876E00137083508F11808C8E7D4F819
:10F8F00050311BB104F5A870FFF77AFF07B0BDE8DF
:10F90000F083000013B5044622686369D2B1042273
:10F91000114983F85F20626808680090242101FB88
:10F9200002329888B2F8DA20ADF804200132ADF83E
:10F930000620694601AAFFF7F9FE50B12046FFF7FD
:10F9400040FFE1E793F85F20042A04BF022283F816
:10F950005F2002B010BD00BF20FC02002DE9FF4176
:10F960000B78042B88BF042380F85E3000254FF00D
:10F97000FF3304468846C0F86851C0F86C31C0F8BF
:10F980007031C0F87431C0F878310E4600F1C0070C
:10F9900094F85E309D422BD23379A288ABB9D4F86B
:10F9A0006831591C04EB8303C4F868113189C3F82A
:10F9B0006C5100910A237189019103FB058338463C
:10F9C000A16D9B79FEF742FB0EE00A2101FB058148
:10F9D000738889798DF800103189019171890291BC
:10F9E0003846A16DFEF757FB01350A362437CFE7BD
:10F9F000D4F8683133B104F5B47004B0BDE8F04117
:10FA0000FFF780BF04B0BDE8F0810000F0B590F8CA
:10FA10005F30032B85B0044634D10A68364B9A42D6
:10FA200000F5A8772AD18968102268460AF07AFD85
:10FA30003846FFF7B0FE182303FB0043012183F88B
:10FA4000601002466D4661330DF1100E2E4603CE56
:10FA5000764518605960354603F10803F6D118233E
:10FA600003FB0244384694F86E2094F86D3043EA64
:10FA70000223A4F87230FFF7BBFE3AE03846FFF7E6
:10FA80008AFE36E0042B34D10A681C4B9A4200F5FA
:10FA9000B4772BD189681022033168460AF042FD01
:10FAA0003846FFF78EFE242303FB0043012183F831
:10FAB000C41002466D46C5330DF1100E2E4603CE1E
:10FAC000764518605960354603F10803F6D12423C2
:10FAD00003FB0244384694F8D22094F8D13043EA2C
:10FAE0000223A4F8D630FFF70DFF02E03846FFF7F7
:10FAF00068FE05B0F0BD00BF01001000010013005A
:10FB00000B680BB9036002E0024B03600023436003
:10FB1000704700BFF9CB0100C368184737B50546E9
:10FB20008180002085F85E00022085F85F0008468D
:10FB300001A9ADF80420ADF80630FFF7F5FD102857
:10FB400011D003D868B108280FD008E0112804D0DC
:10FB500043F20203984206D001E0052406E00B249C
:10FB600004E0044606E0042400E00624284621467A
:10FB7000FDF7D8FA204603B030BD000030B504468A
:10FB800089B094F85F30012B6ED194F85C3094F812
:10FB90005D2093424CD20021A51D03A8FDF79AFADF
:10FBA000284603A9FDF7A4FA48B994F85C30182157
:10FBB00001FB034128466031FDF79AFA28B3E36957
:10FBC000ABB12A4B9BB1002103A8FDF783FA04F1E6
:10FBD000300003A9FDF78CFA48B194F85C30182185
:10FBE00001FB034104F11C00A36A6031984794F8BB
:10FBF0005F30012B09D101A804F14401FFF780FF18
:10FC0000019B43B9029BDB0705D494F85C300133B8
:10FC100084F85C30B5E794F85C30A188182202FBC8
:10FC2000034370339A88DB882046FFF777FFA8E705
:10FC3000D2B1CBB11822013B02FB03430022B3F83F
:10FC4000761084F85D204FF6FF73994284F85C20AB
:10FC500003D12046FEF7FCFF06E00131A08889B2FF
:10FC6000FFF760FD0028F4D109B030BDF9CB0100E9
:10FC70002DE9F04390F85F30022B93B0044640F03A
:10FC8000CB80002100F5CA75242209A80AF048FD9E
:10FC900009A8FFF771FD284609A9FFF749FD98B3A8
:10FCA00094F85E3083B3B4F8DA30013BA4F8B23193
:10FCB000002104F1300704A8FDF70CFA384604A926
:10FCC000FDF716FA064690B9384604F5CC71FDF7F3
:10FCD0000FFAC8B1314609A8FDF7FCF9A01D09A922
:10FCE000FDF706FA80F0010010F0FF0F0CD004F1D0
:10FCF000440668463146FFF703FF009B002B40F0A7
:10FD00008180019BDA077DD4002694F85E20F3B24F
:10FD100093424BD294F85F1002297DD1511E8B4241
:10FD20004FF024000DD100FB0343C03303F1200149
:10FD300053F8040B45F8040B8B42F9D11B882B8038
:10FD400034E000FB034703FB00032344C037B3F850
:10FD5000DA30013BFB83002104F1300904A8FDF7F0
:10FD6000B9F9484604A9FDF7C3F9804688B9484661
:10FD7000391DFDF7BDF9B8B1414609A8FDF7AAF94B
:10FD8000A01D09A9FDF7B4F980F0010010F0FF0FE4
:10FD90000AD004F1440802A84146FFF7B1FE029BD5
:10FDA000ABBB039BDB0732D40136AEE794F85F3080
:10FDB000022B31D142B12423013A03FB0242B2F8B3
:10FDC000DC3001339BB201E04FF6FF7394F85C2006
:10FDD000182101FB02420021B2F8762084F85E105F
:10FDE00093420BD2A088ADF8243009A9ADF82620A3
:10FDF000FFF79AFC80B120460B2100E02046FDF77A
:10FE000091F909E030462946FFF786FE7CE7404637
:10FE10003946FFF781FEC7E713B0BDE8F083022043
:10FE200070470220704700207047002070474FF64F
:10FE3000FF70704702207047022070470220704711
:10FE4000022070470220704702207047022070474E
:10FE5000022070470220704702207047022070473E
:10FE60000220704702207047002313607047002073
:10FE7000704702207047022070470220704702201E
:10FE80007047022070470020704700207047002014
:10FE900070470220704702207047416070478160C0
:10FEA0007047C1607047016170474161704702202F
:10FEB00070470220704702207047022070470220DE
:10FEC0007047022070470220704790DF704766DF5E
:10FED000704748DF704790F85F00003018BF01207E
:10FEE0007047007970470C3070470C30704708B588
:10FEF00003689B6B9847BDE80840FFF7EABF000026
:10FF0000034B1A781AB100221A7008F013B970471F
:10FF1000B839002070B594B008238DF8043004AAD5
:10FF20008DF80C3068460CAB0C4600920293FDF73E
:10FF3000EBFB064610B1002323712EE002469DF82C
:10FF40000410D3B299420FD9551C62799A42F3D961
:10FF50002068C3EBC3021044009A52F82310072212
:10FF60000AF0E0FA2A46EAE7237100239DF80C1014
:10FF7000DAB29142217911440ED95D1C637999421C
:10FF80000ADA23680298C1EBC101194450F8220033
:10FF9000FDF7D0FB2B46E9E72171304614B070BD68
:10FFA000FDF736BB08461146FDF772BB0846114601
:10FFB000FDF742BB084611461A46009BFDF7DEBA24
:10FFC0001FB5037963B1164B1A781C46CAB902A84B
:10FFD000FFF77DFFE0B9BDF80A30592B18D101E0D9
:10FFE00010481BE09DF80830DA1F012ABDF80C20EC
:10FFF00009D800920C480D4A20210AF0E7FD0123A0
:020000040002F8
:10000000237009480AE000920748094A2021F4E7D2
:100010000849054820220AF097FEF2E704B010BD17
:10002000543A0020ECFD0200943B002006FE020042
:1000300023FE020048FE020038B5037905464BB3A3
:1000400008F004F940BBD5F82C0118B9D5F83401F3
:1000500050B905E003681B6A98470028F6D038BD00
:10006000D5F8300180B905E003689B6A98470028FD
:10007000F6D038BD05F10C00FEF764FA044668B905
:10008000FDF76CFB2C7109E00368DB6A98470028D8
:10009000F0D038BD092038BD052038BD204638BD18
:1000A00038B50446E3692362206A38B1C368214643
:1000B0009847236A002BF5D01B69F4E7E06920B16B
:1000C000056900F029FF2846F9E7E0616060A0605B
:1000D000E0602061606138BD08B5FFF7E1FF0028EE
:1000E00014BF0620002008BD38B50446006820B1C2
:1000F000056900F011FF2846F9E7206038BD0000CF
:1001000010B5044B044640F8043BFFF7EDFF2046D2
:1001100010BD00BF20FD020010B50446FFF7F0FF40
:10012000204600F0F9FE204610BD38B504460068B0
:1001300020B1056900F0F0FE2846F9E7206038BDDF
:1001400010B5044B044640F8043BFFF7EEFF204691
:1001500010BD00BF30FD020010B50446FFF7F0FFF0
:10016000204600F0D9FE204610BD000038B5064BF1
:1001700003600446406820B1056900F0CDFE2846C2
:10018000F9E7204638BD00BF30FC020010B5044638
:10019000FFF7ECFF204600F0BFFE204610BD000038
:1001A00038B5064B03600446406820B1056900F08D
:1001B000B3FE2846F9E7204638BD00BF40FC0200E8
:1001C00010B50446FFF7ECFF204600F0A5FE2046E0
:1001D00010BD000038B5064B03600446406820B1EE
:1001E000056900F099FE2846F9E7204638BD00BFB2
:1001F00050FC020010B50446FFF7ECFF204600F06B
:100200008BFE204610BD000038B5064B0360044647
:10021000406820B1056900F07FFE2846F9E72046D6
:1002200038BD00BF60FC020010B50446FFF7ECFFCC
:10023000204600F071FE204610BD000038B5064B88
:1002400003600446406820B1056900F065FE284659
:10025000F9E7204638BD00BF40FD020010B5044656
:10026000FFF7ECFF204600F057FE204610BD0000CF
:1002700038B5064B03600446406820B1056900F0BC
:100280004BFE2846F9E7204638BD00BF00FD0200BE
:1002900010B50446FFF7ECFF204600F03DFE204677
:1002A00010BD000038B5064B03600446406820B11D
:1002B000056900F031FE2846F9E7204638BD00BF49
:1002C00010FD020010B50446FFF7ECFF204600F0D9
:1002D00023FE204610BD000038B5064B03600446DF
:1002E000406820B1056900F017FE2846F9E720466E
:1002F00038BD00BF80FD020010B50446FFF7ECFFDB
:10030000204600F009FE204610BD000038B5064B1F
:1003100003600446406820B1056900F0FDFD2846F1
:10032000F9E7204638BD00BF90FD020010B5044635
:10033000FFF7ECFF204600F0EFFD204610BD0379EB
:10034000F7B507460E46154633B100230A2401933C
:1003500000938DF8044007E0FCF766FE044670B990
:1003600001233B71009001903046FCF781FC02A90B
:1003700041F8080D2846EB689847204600E00C201D
:1003800003B0F0BD2DE9F0411F4603685B680446E9
:100390000E46904698470346002849D198E8070042
:1003A00004F11C0585E80700D8F80C20A262E3627E
:1003B00097E8070004F1440585E80700FA686365DB
:1003C000069B226503F11401A21D53F8040B42F8A9
:1003D000040B8B42F9D1079B04F1300203F11007A3
:1003E00018685968154603C50833BB422A46F7D139
:1003F0001868286000220121A68084F85D2084F816
:100400005C2084F85F103046FFF75FFD054690B131
:10041000236820469B689847112D06D043F20203BB
:100420009D420AD0072D03D107E00520BDE8F081E9
:100430000620BDE8F081BDE8F0810420BDE8F08130
:1004400038B5D0F83441054674B9242000F058FD81
:10045000074B8361074B44608460C460046144615E
:10046000C4610360C5F83401D5F8340138BD00BF5C
:1004700000FD0200C0FD020038B5D0F83441054649
:1004800074B9242000F03CFD074B8361074B4460A6
:100490008460C46004614461C4610360C5F83401D0
:1004A000D5F8340138BD00BF00FD0200C0FD0200D8
:1004B000114B10B50360114BC360114BC0F80031F4
:1004C000044600F58070FCF745F80E4BE36004F13C
:1004D000B800FFF799FE04F1AC00FFF77BFE04F1D2
:1004E000A000FFF75DFE04F16C00FFF73FFE204621
:1004F000FCF734FC204610BD58FE0200F8FA02005A
:1005000028FA020070FC020010B50446FFF7D0FF85
:10051000204600F001FD204610BD034600F11F01FA
:10052000002203F8012B8B42FAD14FF40073C277FB
:100530000384704710B5002104461F220AF0F0F82A
:100540000023E37710BD08B5FEF782FB08BD00006D
:100550002DE9F3413C4B03603C4BC3600025A023D5
:1005600000F1160704460571856005744382858293
:100570003846FFF7D2FF4FF480410A462B4604F17C
:100580004006009504F13800FCF7F1FB3046FFF718
:10059000C4FF94F8643084F8625003F0FE0365F3FE
:1005A000410384F864304FF00C08294BE366294678
:1005B000424684F86850256704F178000AF0B0F8E4
:1005C000244BC4F8843029464246C4F8885004F1CC
:1005D0008C000AF0A5F8204BC4F898301F4BC4F8E3
:1005E000A0301F4BC4F8AC301E4BC4F8B8303846AE
:1005F000C4F89C50C4F8A450C4F8B050C4F8BC501F
:10060000FFF798FF3046FFF795FF174BE36084F83C
:10061000C45084F8C55084F8C65004F58070FCF7C7
:1006200031F8124BC4F8003120464FF6FF73C4F87E
:100630002451A4F82831C4F82C51C4F83051C4F81E
:10064000345102B0BDE8F08158FE020070FC020097
:1006500030FC020083E2010079E2010040FC02006C
:1006600050FC020060FC0200F8FA020028FA0200C6
:1006700010B50A4C2368DB070ED4204600F0FAFBC5
:1006800050B10748FFF764FF204600F01DFC044806
:100690000449054A00F0DFFB014810BD903B0020F3
:1006A000583A0020B1040200F82E0020FFF7E0BF06
:1006B000FFF7DEBF38B50C2204460D4600210AF0D4
:1006C0002FF8002323612560014BE360204638BDED
:1006D00055E9010070B5002504460E468571058375
:1006E00029460C221C300AF01BF82C4BE562A36251
:1006F00084F83050A4F84250294604F144000C22FA
:100700000AF00EF8264B2365264B6565A66584F82E
:100710005C5084F85D5084F85E5084F85F5023602C
:1007200004F1600504F1C00628460021FCF7D2FC64
:100730000023AB82EB821835B542F5D104F5A876DB
:1007400028460021242209F0EBFF28462435FFF734
:1007500013F8B542F4D10021C4F85011C4F8541173
:10076000C4F85811C4F85C11C4F86011C4F86811D9
:10077000C4F86C11C4F87011C4F87411C4F878117D
:10078000C4F86441C4F87C4104F5C070FFF792FFDF
:1007900004F5CA70FEF7F0FF204670BD41E9010084
:1007A0004BE90100A0FD020070B5D0F830510646BB
:1007B000E5B94FF4347000F0A3FB0E4B43600E4BD1
:1007C00003610E4BC3610E4B836204460D4B856083
:1007D00045610562C562214640F8343BFFF77AFF68
:1007E00004F5F670FDF7E8F9C6F83041D6F83001A7
:1007F00070BD00BF30FD020020FD020080FD020040
:1008000090FD020088FB02002B4B70B503602B4B60
:1008100083602B4B43612B4B036200252A4BC36241
:10082000044605714571C5608561456205632946C9
:100830003830FFF73FFF294604F14C00FFF73AFF3D
:1008400004F160002946FFF735FF20461F4B40F8B2
:10085000743B04F1C403002240F8042B9842FAD1FF
:10086000054604F5B276284600210822083509F02D
:1008700057FFB542F7D1284604F5C272002340F86D
:10088000043B9042FAD184F8843104F5CB7204F52C
:10089000C373002123F8021B9342FAD104F5CC75EF
:1008A00004F5DE76284600210C220C3509F038FFCD
:1008B000B542F7D1204670BD50FD020010FD020088
:1008C00020FD020030FD020040FD0200F8FB0200A6
:1008D00038B5D0F82C31044643B94FF4DE7000F03F
:1008E0000FFB0546FFF790FFC4F82C51D4F82C01FC
:1008F00038BD38B5D0F82C31044643B94FF4DE701A
:1009000000F0FEFA0546FFF77FFFC4F82C51D4F83B
:100910002C0138BD10B503460C4607C983E8070013
:10092000E268DA6000221A61184610BD08B500F5C9
:10093000C070FFF7EFFF08BD38B590F90030013304
:1009400004460D4604D109480949202200F0CAF89E
:1009500094F9001001234FF0A0428B4015B1C2F86A
:10096000083538BDC2F80C3538BD00BF6CF902003F
:1009700084F9020070B50E460446154602F0A8F947
:10098000013609D02046002102F008FA2046294607
:10099000BDE8704002F0E2B970BD0322FFF7EABF84
:1009A00070B50E460446154602F092F901360DD098
:1009B00020462946FFF7C0FF2046012102F0EEF94C
:1009C00020460021BDE8704002F0C8B970BD002289
:1009D000FFF7E6BF014800F00CB800BFA8FE020018
:1009E00038B5036804461B680D46984763681D6068
:1009F00038BD036870B5DB680446984763685A6879
:100A000023681AB99B68BDE8704018475B68156891
:100A10009847281A0028636808DC5A68916859606A
:100A20001B68002BEAD050689847E7E721685A68AE
:100A30000B691068BDE870401847F8B507460D46C9
:100A40001C46164602F098FA79686C604C682E6075
:100A5000002334B12268B21A002A02DB2346A468BC
:100A6000F7E72BB93B684D601B693046984700E0BB
:100A70009D60AC60BDE8F84002F0C2BA38B50546EA
:100A80000C4602F079FA6A685368A3420BD19B685E
:100A900053602A6813B9936898470AE01269186886
:100AA000904706E0134623B19A68A242FAD1A268A1
:100AB0009A60BDE8384002F0A3BA03685B68184743
:100AC00000487047C4FE02000148FFF792BF00BF14
:100AD000C4FE020009F018BA09F070BE08F0CABEE0
:100AE00008F0A6BC70B506460D46144602F044FA5E
:100AF00031462A462346034800F086F8BDE8704098
:100B000000F020B8CCFE020038B590F90030013377
:100B100004460D4604D1094809492022FFF7E2FFA7
:100B200094F9001001234FF0A0428B4015B1C2F898
:100B3000083538BDC2F80C3538BD00BF6CF902006D
:100B400084F902001FB502F017FA68461121FFF779
:100B50003EFF01A81221FFF73AFF02A81321FFF779
:100B600036FF03A81421FFF732FF68460121FFF783
:100B7000CBFF01A80021FFF7C7FF02A80021FFF764
:100B8000C3FF03A80121FFF7BFFF962000F073F811
:100B900068460021FFF7B8FF01A80121FFF7B4FF65
:100BA00002A80121FFF7B0FF03A80021FFF7ACFF67
:100BB000962000F060F8D8E730B50546A1B00C46A5
:100BC00002F0DAF92946684622460CF0F3F9051ED0
:100BD00003DC02F015FA21B030BD094B1B6823B9C4
:100BE00008480621082207F0CDFC00241DF8041057
:100BF0000448013407F07AFDAC42F7D1E9E700BFC1
:100C0000884E00204C5800200FB407B504A951F8B5
:100C1000040B0191FFF7D0FF03B05DF804EB04B0C3
:100C20007047EFF3108000F0010080F00100704782
:100C30000FB407B504A951F8040B0191FFF7BCFFED
:100C4000012000F00AF970B5054607F011FE4FF4D7
:100C50007A7495FBF4F4002C064602DDFFF7E1FF01
:100C600028B907F005FE801BA842FAD370BD2046C4
:100C700000F07EF9F5E74FF47A735843FFF7E3BFCE
:100C8000014B186800F0F2BC8C52002008B5084BEC
:100C90001B685BB907480621082207F073FC05486A
:100CA0004FF41651BDE8084007F01EBC08BD00BF58
:100CB000884E00204C5800207047000002284FF05A
:100CC000000309DDC21E074951F8220041F8223015
:100CD00020B103685B681847184670474FF0FF3033
:100CE000704700BFC83B0020022870B50C4615466F
:100CF0000FDC0E4B1B680BB9FFF7C8FF6619B44237
:100D000005D00B4814F8011B07F0F0FCF7E7284664
:100D100070BD0338074B53F8200020B10368BDE8CD
:100D200070401B6818474FF0FF3070BD884E0020A0
:100D30004C580020C83B0020022810B50C460ADCA5
:100D40000B4B1B680BB9FFF7A1FF0A4807F0FAFB32
:100D50002070012010BD0338074B53F8200020B14C
:100D60000368BDE810409B6818474FF0FF3010BD86
:100D7000884E00204C580020C83B0020022807DD88
:100D80000338064B53F8200020B10368DB6818478E
:100D9000012070474FF0FF30704700BFC83B002074
:100DA000022807DD0338064B53F8200020B1036802
:100DB0001B691847002070474FF0FF30704700BF95
:100DC000C83B0020022808B504D84FF400534B60FC
:100DD000002008BD08F05CFB092303604FF0FF30E2
:100DE00008BD08B5012000F038F808B5FFF764FF2A
:100DF00000F07CF908BD704708B5FFF7FCFFBDE8BF
:100E0000084008F077B800000C4A136810B5184481
:100E1000EFF30881884205D3094B0C221A604FF08A
:100E2000FF3010BD0749096821B1074C24682144EF
:100E30008842F1D21060184610BD00BF042F002078
:100E400074580020C43B0020C83C002008B508B1FD
:100E5000FFF778FEFEE70120704708B5FFF7F6FFC1
:100E60000120704708B500F04FF908BD08B500F043
:100E700053F908BD10B5037803F00303012B0446B2
:100E80001AD00E4B4FF0FF31186800F0C7FB2378E3
:100E900003F00303012B02D1FFF7F2FE0CE02BB1AC
:100EA0000748084940F22132FFF71CFE237843F03F
:100EB00002032370012010BD002010BD8C520020C1
:100EC00007FF02002DFF020010B5037803F00303B3
:100ED000022B044605D00848084940F22932FFF7A2
:100EE00001FE237823F0030343F001032370BDE8E0
:100EF0001040FFF7C5BE00BF4DFF02002DFF0200EE
:100F000010B508F0F1FF044610B90248FFF790FE53
:100F1000204610BD8CFF020008B108F0EDBF7047FD
:100F200070B500F1080504460E4608222846002147
:100F300009F0F6FB2046314640F8045F00F03EFC25
:100F40002060204670BD006800F05ABC006800F0C8
:100F500067BC10B50446006800F076FC204610BD62
:100F6000024B1B6803B11847704700BFCC3C002000
:100F700000F0D0BA7047000008B5024B1B689847D4
:100F8000FBE700BF082F0020836A9B0804BF214BAA
:100F90001B88F0B5046B08BF9B0804EB8302550760
:100FA00048BF043A4FF0807602E94200A2F14005C2
:100FB000A2F14406A2F10C074FF0000E46F804EF30
:100FC000BE42F9D1C66942F8206C124AC562126865
:100FD0004163D2001AD5112B18D9A3F1100252087F
:100FE000531E29463BB14FF0CC3041F8040C013B75
:100FF00041F8080DF6E7D200C2F10802AB181A1F3B
:1010000094423CBF4FF0CC3243F8042C024B236097
:10101000F0BD00BF08000300A52E5AE290F825207D
:10102000C36A0AB1603300E020331960704710B51D
:1010300090F82540C36A0CB1603300E0203383E8A8
:10104000060010BD08B50B4800F0C8FA0A4B18603E
:101050000A4800F0C3FA0A4B18600A4800F0BEFACA
:10106000094B186008F0A8FE00200146BDE80840C2
:10107000FFF7C2BE940003008C5200208C000300D6
:10108000083D002010000300043D0020FFF774BF5E
:1010900010B5044600F010FA21460246BDE81040A3
:1010A0000148FFF7C5BD00BF28000300FFF758BF88
:1010B00030B4094B094A0A4D1360C3F10052094C80
:1010C000094902F5784213444FF400602B60226016
:1010D000086030BC704700BF78580020C83C002032
:1010E00030450020C43B00200C45002000F008FCE7
:1010F000FFF7DEFF0348002100F0FAFA00F060F984
:10110000FEE700000C2F0020024B4FF0FF31186863
:1011100000F084BA083D0020014B186800F0A6BA20
:10112000083D002080F309887047EFF3098070477D
:10113000684680F309885A480078C00714BF022027
:10114000032080F314887047DFF858C1EFF305835C
:101150001B0618BF6047EFF31483DB0708BF604727
:1011600000DF7047DFF840C1EFF305831B0618BFAF
:101170006047EFF31483DB0708BF604700DF704769
:10118000EFF30980816911F8021CE1BB90E80F10B0
:1011900010B5E047BDE81040EFF3098C8CE807007C
:1011A000424B93E80600914208BF704741B91EF0D8
:1011B000100F16D13E49086820F00100086010E0C9
:1011C0001EF0100F06BF2CED108A0120002081F8C0
:1011D00025002CE9F00FC1F82CC00CB401F0D0F8B8
:1011E0000CBC1A60D2F82CC0BCE8F00F92F82500B5
:1011F00000280EBF6FF0020E6FF0120EBCEC108ACA
:101200008CF30988704710B52A4A1268914209D8B0
:10121000294C54F8214090E80F10A047EFF3098CB7
:101220008CE80F0010BD10B501F036F8BDE8104095
:101230001E4B93E80600914208BF7047EFF3098CFC
:101240001EF0100F06BF2CED108A0120002081F83F
:1012500025002CE9F00FC1F82CC00CB401F090F877
:101260000CBC1A60D2F82CC0BCE8F00F92F8250034
:1012700000280EBF6FF0020E6FF0120EBCEC108A49
:101280008CF30988704710B501F05CF8FFF7CEBF0A
:1012900010B501F055F801F055F8FFF7C7BF000091
:1012A0000C000300671F0200811F0200CC570020C2
:1012B00034EF00E000000000FCFFFFFF0B4A136862
:1012C00030B5002433B19D68A94203D31C46491BA5
:1012D0001B68F7E70360816013B19D68691A996024
:1012E0000CB1206030BD106030BD00BF88570020B9
:1012F000C0B1431C11D00C4B984211D80B4B1B684A
:101300004FF47A715A1E01FB0020B0FBF3F34FF645
:10131000FE70834206D898B270474FF6FF70704750
:101320004FF6FE70704700BF00093D000400030047
:1013300038B1830704D10378002B18BF0020704711
:101340000020704738B50E4D2878B0B90D4C236891
:1013500093F8241001F086F82368DA78FF2A03D185
:10136000DA6A203282F309886168064A09B982E89C
:101370000A0001F029FA01232B70002038BD00BFBC
:1013800085570020CC570020014B1878704700BFCC
:101390008557002010B5EFF3108434B9EFF30584BE
:1013A0001CB9EFF31484E40702D4034B187810BD82
:1013B000DFF808C000DF10BD855700208913020048
:1013C00010B588B0EFF31083002B33D1EFF3058312
:1013D000002B2FD1FFF7DEFF28B9194C246814B178
:1013E000646804B1A047EFF3148404F00304022CF2
:1013F0000CD0032C16D0012C1ED008AC84F3098825
:10140000104C2478E40705D5022404E00D4C247820
:10141000E4070BD4032484F31488BFF34F8FBFF386
:101420006F8F03E0074C2478E40705D4DFF818C079
:1014300000DF02E0822000E0FF2008B010BD00BF06
:10144000BC5700200C0003004513020038B51546B8
:101450000B46024608B9002038BD00680028FAD0C3
:101460009488E11C89B20629F5D8D16809B11269BE
:1014700000E00A4624B2043444EA012101F030F8C5
:101480000028E8D0094B0A4A013853F82040E36AA3
:101490005A63084B1B6833B19B6823B1E078294637
:1014A0009847E06300E0E563204638BDE85100203E
:1014B0003D160200BC57002008B500F0CBFF18B164
:1014C0000138024B53F8200008BD00BFE85100204E
:1014D00010B5FFF72DFF044670B1084B1B681BB118
:1014E000DB680BB1C06B9847E07801F04DF8FF283E
:1014F0000CBF8120002010BD802010BDBC570020F3
:1015000008B528B1FFF7F4FE01F0A4F9402008BDAA
:1015100008BD000010B5EFF3108434B9EFF3058473
:101520001CB9DFF80CC000DF10BD822010BD000028
:1015300001150200830704D128B1436901691B68C2
:1015400003E0002300E003461946184670470000F8
:1015500010B504460846DFF80CC000DF84E803003D
:10156000204610BD3515020010B548B1046824B1FD
:10157000237823B9204600F018FD204610BD002036
:1015800010BD70B510F0030405460E4611D180B1B0
:101590000378032B0DD10846FFF7AAFE0146284623
:1015A00000F07CFD012806D1002E14BFC12081204F
:1015B00070BD802070BD204670BD820708B50AD17D
:1015C00048B10378032B06D100F0F8FCFF280CBFCC
:1015D0008120002008BD802008BD000070B50546B0
:1015E000EFF3108494B9EFF305868EB9EFF314840A
:1015F000E40706D4074C24781CB9BDE87040FFF717
:10160000B3BF2846DFF810C000DF70BD002070BDFA
:10161000204670BD855700206915020010B5EFF314
:10162000108434B9EFF305841CB9DFF80CC000DF77
:1016300010BD822010BD000083150200084908B5C6
:1016400008684FF0FF31FFF7E9FFDFF818C000DF4F
:101650000446FFF72BFD2046DFF80CC000DFFEE755
:1016600080570020B9140200D114020010B5EFF326
:10167000108434B9EFF305841CB9DFF80CC000DF27
:1016800010BD822010BD0000BB1502002DE9F04105
:1016900080460F461646EFF31084F4B9EFF3058346
:1016A000E3B9EFF31483DB0706D40E4B1B781BB9A9
:1016B000BDE8F041FFF7CABE0B4D4FF0FF3128687F
:1016C000FFF7ACFF404639463246DFF820C000DF66
:1016D00004462868FFF7CAFF00E000242046BDE862
:1016E000F08100BF85570020805700204D14020074
:1016F0000022FFF7CBBF10B568B1046844B1207871
:1017000040B9B1F5803F06DA204689B200F02AFDE3
:10171000204610BD002010BD38B510F0030405466A
:101720000FD170B10378022B0BD10846FFF7E0FD13
:101730000146284600F060FD012805D06888013088
:1017400038BD4FF0FF3038BD204638BD10B510F021
:1017500003040CD158B10278022A08D142884FF60E
:10176000FF739A4205D000F031FD204610BD802065
:1017700010BD812010BD10B510F0030407D130B1A9
:101780000378022B03D100F0F3FC204610BD80202B
:1017900010BD10B510F003040CD158B10278022A24
:1017A00008D142884FF6FF739A4205D000F040FD01
:1017B000204610BD802010BD812010BDF0B506462A
:1017C0000D46EFF310849CB9EFF3058797B9EFF35B
:1017D0001484E40706D4084C24781CB9BDE8F04012
:1017E000FFF789BF30462946DFF810C000DFF0BDA3
:1017F0000020F0BD2046F0BD85570020F7160200FE
:1018000010B5EFF3108434B9EFF305841CB9DFF899
:101810000CC000DF10BD4FF0FF3010BD19170200E3
:1018200030B50446EFF3108515B9EFF3058525B102
:101830002046BDE83040FFF7ACBFDFF808C000DF4E
:1018400030BD00004D17020010B5EFF3108434B91D
:10185000EFF305841CB9DFF80CC000DF10BD822057
:1018600010BD00007717020010B5044660B1016892
:1018700059B1406860B103784BB90431890089B22D
:1018800000F040FA606810BD10BD084610BD002091
:1018900010BD000038B5114C23780BB900F01AFFC9
:1018A0000F4B25781B68FF229A708DB929460D4889
:1018B000FFF7DAFF0C4B294618602A460B48FFF762
:1018C000C5FD0B4B18600B48FFF788FE0A4B1860EC
:1018D00001232370094B0020187038BD8457002065
:1018E000CC57002098000300885200201400030009
:1018F0007C570020A8000300805700208557002057
:1019000010B5EFF3108474B9EFF305845CB9EFF30D
:101910001484E40703D4BDE81040FFF7BBBFDFF831
:101920000CC000DF10BD822010BD00009518020021
:101930002DE9F04F0C4685B08046E8B10378012BC5
:101940001FD10846FFF7D4FC02A90246404600F02A
:10195000E7F9012806D10020002C0246034618BFF3
:10196000402003E00020024603461020029904466E
:101970000D4616461F4608E08024054606460746E3
:1019800003E0002580242E462F4620462946324675
:101990003B4605B0BDE8F08F70B50E4614460546CF
:1019A00060B15AB90378012B08D100F00FFA38B1B1
:1019B0002846314600F00EFA204670BD802070BDEA
:1019C000812070BD114B70B51C681E46E4B1A36840
:1019D000013BA360A268BAB90D4B25681868356051
:1019E0002146FFF7D9FF10B10420FFF751FB6379BF
:1019F000012B04D12046E168FFF760FC01E00123E0
:101A000023710DB12C46E5E770BD00BF885700205B
:101A1000885200207FB50446164601B112B18023DA
:101A2000236011E00B78012BF9D1084602A900F0E0
:101A3000D8F9042808BF102301AD14BF0196019303
:101A400095E8070084E80700204604B070BD000058
:101A500038B504461546EFF3108010B9EFF3058052
:101A600020B120462A46FFF7D5FF06E0084611467A
:101A7000DFF80CC000DF84E80700204638BD000016
:101A8000311902007FB50A4B03A819684FF0FF32E5
:101A9000FFF7DEFF039B102BF5D101A80499FFF798
:101AA00057FD019B002BEED002989847EBE700BF53
:101AB0008852002010B5038B42781943062A044649
:101AC0000183438B04D101EA03029A4219D105E054
